:10000000C00D002001650000396500003D6500005D
:1000100041650000456500004965000000000000E2
:100020000000000000000000000000004D6500001E
:100030005165000000000000556500005965000092
:100040005D65000000000000616500000000000028
:1000500000000000000000000000000000000000A0
:1000600065650000696500006D6500007165000050
:1000700075650000796500007D6500008165000000
:1000800085650000896500008D65000091650000B0
:1000900095650000996500009D650000A165000060
:1000A000A5650000A9650000AD6500000000000026
:1000B000000000001D33000000000000B1650000DA
:0800C00000000000B56500001E
:1000C8002DE9F04FA1B08046002017461D46029149
:1000D8000B900DF1440A6FF000490AE017F8011B74
:1000E8000298C0470028029000F0AB820B98401C91
:1000F8000B90387808B90B98A5E22528EED1002096
:10010800059006900790089009900A9001E040F049
:10011800010017F8011F2029F9D023290DD02B2918
:1001280004D02D2906D030290AD00CE040F0020076
:1001380080B2EEE740F00400FAE740F00800F7E785
:1001480040F01000F4E72A290ED12968296051F8F7
:10015800042B2960002A0D9204D5514240F0040076
:100168000D9180B27F1C11E000210D9109E00D99DD
:10017800494505D001EB810302EB430130390D916C
:100188007F1C3A78A2F130010A29F0D339782E2958
:1001980003D04FF0FF310C911DE017F8011F2A29F9
:1001A80007D1296829607F1C51F8042B29600C921B
:1001B80011E000210C9109E00C99494505D001EBAB
:1001C800810302EB430130390C917F1C3A78A2F18C
:1001D80030010A29F0D3ADF838000FF678403978A5
:1001E80000F052FE08B117F8010B8DF83A009DF89F
:1001F8003A00682802BF39786829622005D06C283F
:1002080004BF38786C2803D171208DF83A007F1C20
:1002180011A8049017F8014BB4F1250029D01C3817
:1002280000F0C280001F022840F2BE80133800F0A0
:10023800E380093800F0B880801E00F04A81401E33
:1002480000F02381401E022840F2AE80001F00F01B
:100258001C81401F79D0401E00F0CE80401E24D063
:10026800C01E0BD0801E00F0C780C01E00F0C480E6
:1002780039E125208DF8440001203DE128682860F7
:1002880050F8046B286003960C9C002C04D530466B
:1002980000F006FE044606E022460021304600F043
:1002A8001BFE00B1841B069427E1296829603C24C1
:1002B80051F8040B29600021CDE9000111A8039031
:1002C800DDE90001049E11B908B90C9AB2B1020621
:1002D800120FA0EB02123032D2B2631E3A2AA8BF24
:1002E8002732000940EA017009099A5508BF002819
:1002F8001C4603D0039AA3199A42E8D3A019039085
:10030800C4F13C010C980691814209DA401A089020
:100318004FF6EF71BDF838000840ADF83800ECE052
:10032800002840F1EA809DF8380000F014001028F9
:1003380040F0E3800D98059A801A089A801A441AAA
:10034800012CC0F2DA800894D7E09DF83A006228C0
:100358001AD0682806D06A280CD06C281CD07128BE
:1003680008D019E02868286050F8041B28600B980A
:100378000880C2E02868286050F8042B28600B9891
:10038800C117C2E90001B8E02868286050F8041BCA
:1003980028600B980870B0E02868286050F8041BA3
:1003A80028600B980860A8E02868C01D20F00702A4
:1003B8002A60D2E9000108322A60CDE9000100294B
:1003C80002D505982D210AE0BDF83800810702D52D
:1003D80005982B2103E0C00705D50598202100F8D2
:1003E8000A10401C059011A8059908180390214689
:1003F80000A800F0E5F980E09DF83A006C280DD0DF
:10040800712818BF6A2809D12868C01D20F0070282
:100418002A60D2E9000108322A6005E029682960CB
:1004280051F8040B29600021CDE900019DF83A003C
:10043800682803D1DDE9000180B20BE0622803D10E
:10044800DDE90001C0B205E0742818BF7A2804D19C
:10045800DDE900010021CDE900019DF83800000721
:100468002ED5DDE90001002908BF002828D044F076
:100478002000782824D10598302100F80A10401C63
:10048800411C059100F80A401AE09DF83A002946F7
:1004980000F0DCF8CDE90001002902DA05982D21E9
:1004A8000AE0BDF83800810702D505982B2103E042
:1004B800C00705D50598202100F80A10401C0590B2
:1004C80011A8059908180390214600A800F0F5F82E
:1004D80013E0012005902868286050F8041B286064
:1004E8008DF8441009E025208DF84400012005907E
:1004F8001CB18AF80140022005900D980599401A10
:100508000899401A0699401A0999401A0799401AF9
:100518000A99441A9DF83800400710D420208DF815
:100528004000002609E0012310AA00A9404600F077
:100538007AFC002840F08580761CA642F3DB059EF5
:100548000DF1440B0AE01BF8011B0298C047002874
:10055800029076D00B98401C0B90761E002EF2D19C
:1005680030208DF840004FF0000B089E09E0012371
:1005780010AA00A9404600F056FC002861D10BF1F2
:10058800010BB345F3DB069EDDF80CB00AE01BF85F
:10059800011B0298C0470028029052D00B98401CBB
:1005A8000B90761E002EF2D130208DF840004FF0CF
:1005B800000B099E09E0012310AA00A9404600F09B
:1005C80032FC00283DD10BF1010BB345F3DB039856
:1005D8000699079E01EB000B09E01BF8011B029826
:1005E800C047029068B30B98401C0B90761E002EF3
:1005F800F3D130208DF840004FF0000B0A9E08E040
:10060800012310AA00A9404600F00DFCC8B90BF15F
:10061800010BB345F4DB9DF8380040077FF569AD61
:1006280020208DF84000002600E0761CA642BFF688
:1006380060AD012310AA00A9404600F0F4FB002891
:10064800F3D04FF0FF3021B0BDE8F08F622826D0FC
:1006580068281DD06A2808D06C2827D0712804D0B3
:10066800742823D07A280CD020E00868C01D20F018
:1006780007000860D0E900230830086019461046D2
:1006880070470A680A6052F8040B0A600021704734
:100698000A680A6052F8040B0A6000B20BE00A68A4
:1006A8000A6052F8040B0A6040B204E00A680A6063
:1006B80052F8040B0A60C11770472DE9FA4E054637
:1006C8000A462F696F2A08BF082405D041F0200088
:1006D800782814BF0A2410243C26D5E90001642A8E
:1006E80018BF692A81468A4605D1002903DAD9F15B
:1006F80000096AEB4A0ABAF1000F08BFB9F1000F06
:100708000CD1286B50B9082C36D195F83800000761
:1007180032D530203B2687F83B002DE0E3174846CA
:100728005146224600F004FCA4FB0023A9EB020278
:100738003032D2B2A6F1010B3A2A5E4603DB9DF8AD
:100748000030513B9A1881465FEA010A0BF80720EE
:1007580008BFB9F1000F03D0E868F1198842DDD36A
:10076800082C09D195F83800000705D5F05D302828
:1007780002D0761E3020F055C6F13C00A861F11970
:10078800E960296B884208DA081A28624FF6EF7187
:10079800288F08402887BDE8F38E00290ED595F8E4
:1007A800381001F01401102908D1696B6A69891A97
:1007B8002A6A891A0E1A012EA8BF2E62BDE8F38E86
:1007C8002DE9F24F04468EB0D4E90001CDE90201CB
:1007D80004AF9DF8380040F0200BBBF1610F0AD040
:1007E800206B002848BF062004D408BFBBF1670F60
:1007F80001D1012020636168C1F30A5040F2FF7201
:1008080090421CD1080304BF2068002809D10320A6
:10081800A0619DF8380061381A2836D30FF2486174
:1008280008E00320A0619DF8380061381A2829D310
:100838000FF22C61E068032200F0F2FBBEE1012810
:1008480016DA204600F027FC012811DB00250020DD
:10085800BBF1610F20D1E168302201F8012B4A1C5D
:10086800E2609DF83820612A0CBF782258220FE0F8
:10087800626840F2FE3161F31E52451A62604FF021
:10088800FF30E5E70FF2D451D4E70FF2D851D1E7A2
:100898000A706169891C616110B90026002584E12C
:1008A800BBF1610F40F09780206BD4E900AB0028C2
:1008B8004CBF2126461CDDE902010022002300F07E
:1008C8000BFC36B23ABF8BF00040CDE902A0CDE96F
:1008D80002AB06F101082D1F8DF810200DF111074C
:1008E80000E0C71DB8F1010F33DBDDE9020100228A
:1008F800002300F009FC2CD21C2102A800F01CFCEB
:10090800DDE9020100F0A4FCA8F10708B8F1010F25
:10091800814609DB00F0C8FC02460B46DDE902010E
:1009280000F0DAFCCDE90201F81D072105E009F025
:100938000F0200F8012D4FEA2919B9F1010F01DB67
:10094800491EF4D5491E5CBF002200F8012DF9D5D7
:10095800C7E70DF11100391AB142B8BF0E4636B2D9
:1009680030000DF111072FD4884206DA04A9411886
:1009780049780829A8BF0F2100DA002104AA8218A3
:1009880000E0761E12F80139401E8B42F9D00F297B
:1009980004D104A941184A78521C4A70002802D58B
:1009A80004AF761C2D1D36B2701E0DD4C1190A78FD
:1009B8003032D2B23A2A03DB9DF838303A3B9A18E3
:1009C800401E01F80129F2D5206B002840F1ED8086
:1009D800701E2063E9E0DDE902010022002300F037
:1009E8007BFB3CBF81F00041CDE902012DB247F20B
:1009F800975068434B49DFF8309190FBF1F52DB2E1
:100A0800C5F1070ABAF1010F90461CDBDDE9026760
:100A18005FEACA7007D542464B463046394600F071
:100A28001BFD06460F464046494642464B464FEA9E
:100A38006A0A00F011FDBAF1000F80468946E7D135
:100A4800CDE9026724E0CAF1000A0026374F14E016
:100A58005FEACA7007D542464B463046394600F031
:100A6800FBFC06460F464046494642464B4600F0C8
:100A7800F3FC4FEA6A0A80468946BAF1000FE7D1CB
:100A8800DDE9020132463B4600F0B8FDCDE902013E
:100A9800BBF1660F216BDFF898900CBF05F10A00D7
:100AA80006204618142EA8BF132630208DF81000F3
:100AB8000DF11107012E3DDBDDE9020100F0DEFB3F
:100AC80007F1080104220A23B0FBF3F303EB8307C1
:100AD800A0EB4700303001F8010C0A20B3FBF0F01E
:100AE80000EB8007A3EB47033033521E01F8023DA9
:100AF800E9D1083E012E01F10807DBDBDDE902013F
:100B080000F0BCFB00F0DAFB02460B46DDE902010F
:100B180000F0E2FB00224B4600F09EFCCDE902010A
:100B2800CAE700BFA0860100000024400000F03F93
:100B380084D797410DF11100381A0DF1110702E021
:100B4800401E6D1E7F1C39783029F9D0BBF1660F25
:100B580002D12DB2691C04E0BBF1650F0CBF012165
:100B68000021226B8E1836B2B042B8BF064636B2A4
:100B780031001AD4814204DAC85D3528A8BF39206B
:100B880000DA3020CA19521E00E0761E12F8013928
:100B9800491E8342F9D0392802D1C85D401CC85586
:100BA800002902D57F1E761C6D1C2DB29DF83810C9
:100BB800009533B23A46204600F003F80FB0BDE87E
:100BC800F08F2DE9F04305461E46D5F83080012EFA
:100BD80085B08946174602DA01260FF2902749F0B8
:100BE8002000BDF93040662808BF641C17D067286C
:100BF80040F0828014F1040FC0F28480444580F2F2
:100C0800818095F83800641C000702D44645B8BFB7
:100C1800B04624B2B8EB040848BF4FF0000824B22D
:100C2800E868A969012C25DA4A1C30230B54B8F16D
:100C3800010F03DA95F83810090702D52E2111544F
:100C4800521C18EB040FB8BFC8F1000424B2A0442A
:100C58006142B045AA616962B8BF4646AB6936B21F
:100C6800EE6132463946181800F0DAF9A8EB0600AA
:100C7800A862C1E00818A64218DA3246394600F0E0
:100C8800CFF9A9697118A01BB8F1010FA9616862B1
:100C980003DA95F83800000705D5EA682E2088544D
:100CA800E869401CE861C5F82880A5E02246394675
:100CB80000F0B6F9A8692018361BB8F1010F03DA5D
:100CC80095F83810090703D5EA682E218154401C8D
:100CD800A86136B2B045B8BF4646E868AB6936B2D7
:100CE8003246E119181800F09BF9A8693018A86174
:100CF800A8EB060068627FE0B9F1610F16D14FF0EA
:100D0800700918E0464504DA95F83810090758BF05
:100D1800B046B8F1010848BF4FF00008B9F1670FB5
:100D280014BF4FF045094FF0650904E0B9F1410FD0
:100D380008BF4FF05009A969E86817F8013B0B5440
:100D48004A1CB8F1010F05DA95F83810090758BFA1
:100D5800AA6117D52E211154531CB8F1010FAB61AC
:100D680010DB761E36B2B045B8BF464636B23246BC
:100D78003946181800F054F9A8693018A861A8EB8A
:100D880006006862E868A9690918200081F80090DF
:100D980003D42B2048708F1C03E02D224A708F1C2F
:100DA800644200260DF1080808E00A2200A800F0B5
:100DB80050FD019808F8010B761C009C21B201290E
:100DC800F3DA022E06DA49F02000652804BF302045
:100DD80007F8010B4EB9302007F8010B07E0761E23
:100DE80002A8305C303007F8010B012EF7DAE8680A
:100DF800A9690818381AE86195F8380000F0140055
:100E080010280DD16869A9690818696A0818E9697C
:100E18000818A96A0818696B8842BCBF081A2862B2
:100E280005B0BDE8F083F8B504460D4616461F46E2
:100E3800002004E0E86A401CE8627F1E002047B1F9
:100E480016F8011BA868A0470028A860F2D14FF047
:100E5800FF30F2BD686A6C747A4C00006E616E00F7
:100E68004E414E00696E6600494E46003000826869
:100E7800521C8260426832B10268531C03601170D0
:100E88004168491E416070470278C9B28A421AB166
:100E98001CBF10F8012FF9E718BF002070470000A9
:100EA80000F10103810704D010F8011B89B1810703
:100EB800FAD10268B2F10131914311F0803F04BFC9
:100EC80050F8042FF6E710F8011B11B110F8011BB8
:100ED800FBE7C01A70470000C9B2830706D0521E4C
:100EE80022D310F8013B9942F7D11FE0083A13D3F7
:100EF80002F1040241EA012141EA014150F8043BB0
:100F0800121F21BF4B40A3F1013C2CEA030C1CF03B
:100F1800803FF3D0C9B2001F083210F8013B521EBF
:100F280028BF91EA030FF8D818BF0120401E704768
:100F38001B4213D1094236D12AB18446B0FBF2F0E4
:100F480002FB10C2704700F08BBCFCD300220023C8
:100F580070470B000200002100207047904271EB9F
:100F6800030CF6D370B5B1FA81F4B3FA83F52C1BF0
:100F7800A340C4F1200532FA05F63343A2405FF0DE
:100F88000046E64002E05B085FEA3202841A71EB31
:100F9800030524BF204629467641F4D302000B00FE
:100FA8003000002170BD012ACFD970B5140C20D0B3
:100FB800B1FA81F4B2FA82F5C4F120046419B4F1EB
:100FC8002006D6D3B2405FF00044F440002502E08A
:100FD80052085FEA3303C61A71EB020E24BF30468B
:100FE800714664416D41F3D302000B0020002900D3
:100FF80070BD0C46B1FBF2F102FB11452D0445EA28
:101008001045B5FBF2F402FB145580B240EA0545E1
:10101800B5FBF2F002FB105240EA044070BD00003C
:1010280062B38B0708D0521E11F8013B00F8013B50
:1010380000F024808B07F6D1830740F0208000BFA2
:10104800103A07D330B4B1E83810103AA0E8381095
:10105800F9D230BC530724BFB1E80810A0E8081043
:1010680044BF51F8043B40F8043BD20724BF31F891
:10107800022B20F8022B44BF0B7803707047083A04
:1010880007D3B1E80810083A40F8043B40F804CB0D
:10109800F7D25307E4E730B4436803F00042012174
:1010A8001B031B0B436004BF0368002B08D10DE032
:1010B8000368DD0F45EA440444605B000360491E91
:1010C8004468E302F4D523031B0B436043681A43C7
:1010D8004260084630BC70474FF4001C1CEB410FBF
:1010E80094BF1CEB430F09E041EA030C50EA4C0C97
:1010F80052EA0C0C03D2994208BF9042704714BFC1
:101108008B428242704700004FF4001C1CEB410FD9
:1011180094BF1CEB430F09E041EA030C50EA4C0C66
:1011280052EA0C0C03D28B4208BF8242704714BFAC
:10113800994290427047000070B504460D466068B9
:10114800C0F30A5040F2FF71884207D1606800037B
:1011580004BF2068002817D0022070BD20B920469F
:10116800FFF799FF012868DA012D0FDB40F2FF71C4
:10117800091A8D420AD3606800284CBF9FED300BD6
:101188009FED310B84ED000B012070BD4142A94257
:10119800616806DA6FF31E51401941EA0050606039
:1011A80042E0401E63684519012205F1350062F3EB
:1011B8001F53352801F00041636003D361600020AC
:1011C800206070BD002215F11F0F04DA2268236029
:1011D800002020356060684214D0521E2568924174
:1011E800C0F12003D2439D4045EAD272256825FA12
:1011F80000F6656805FA03F333432360636823FA4E
:1012080000F5656060680843B2F1004F606003D87C
:101218000DD12078C0070AD52068401C20602068BE
:1012280028B96068401C60604FF0FF3070BD60688E
:10123800884204BF20680028F6D1002070BD00BF96
:10124800000000000000F0FF000000000000F07F38
:10125800F446400D40EAC120490006D200F014F8D7
:10126800004248BF6FF00040604700F00DF84FF0B3
:10127800004188428CBF084640426047400D40EA22
:10128800C120490080F00D8040F00040490DA1F5D3
:101298008061491C05D4D1F11F0154BFC840C01753
:1012A80070474FF000007047010040F10980F44694
:1012B800404200F005F851F000416047010000BFCE
:1012C80009D0B0FA80F18840C91CC1F584610905CC
:1012D80001EBD02140057047F0B44FF0004591EA8A
:1012E800030F44BF6B4000F0BDBA00BF841A71EB16
:1012F800030604D26E40001BB141121973414FF42A
:10130800001C1CEB410F34BF7CEB430684E00C0D42
:10131800A4EB1356362E7DDC012E43DC45EAC323AD
:1013280043EA525312BFD20292025B08240545EAEF
:10133800C12141EA5051D2EBC020994125D407D1AF
:10134800B0FA80F610FA06F164D00020203608E0E2
:10135800B1FA81F6B140C6F1200220FA02F2114337
:10136800B0404FEAF474B4EB465434F001064FEA47
:1013780074040AD8D6F50016760D04F00044F0403F
:1013880061FA06F25040F1404840C00A40EA415034
:1013980021F0004128BF5FEA500550F1000044EBFE
:1013A800D12137E045EAC323DB0A45EAC121C90A4E
:1013B800B6F120050EDD42EA0242120CC5F1200604
:1013C80003FA06F6EB4042EA06056D42984161F1E0
:1013D80000010DE062FA06F5F240554063FA06FC9A
:1013E80082EA0C02F3405A406D42904161EB0301DE
:1013F80011F4801F05D1641E620502D06D004041C2
:10140800494121F48011430875F1004350F100006F
:1014180041EB0451F0BC70471CEB410F15D223F08F
:10142800004352EA43060BD04FEA4C0CBCEB410F89
:1014380004D80C0D661E342EB7DDEBE7801A9941EF
:1014480050EA410608BF0021E4E708BF1CEB430F40
:1014580028BF6FF00001DDE7B0B581EA030C0CF09E
:10146800004C40F2FF7515EA11541DBF15EA1357D9
:10147800AC42AF4239E0E41923EA455343F4801300
:10148800C90241F0004141EA505EC7021100A7FBC2
:10149800020200284FF00000EEFB01204FF000018F
:1014A800E3FB072118BF42F001024018002149411F
:1014B800E3FB0E01A4F580640F0302D25200404101
:1014C800494154F101046CDD470872F1004250F1C2
:1014D800000051EB0451A1F580115CBF41EA0C01F9
:1014E800B0BD4CEA05510020B0BD05EA1357AC4227
:1014F80014BFAF4241E050EA410E1CBF52EA430E0E
:1015080002E061460020B0BD24423C441BD15FEAA2
:10151800070EF6D0090302BF01460020AEF1140EF3
:10152800B1FA81F7AEEB070401FA07FE0C37C7F1F1
:10153800200100FA07F7C8404EEA000E23EA455397
:1015480043F48013A2E733F00043B3FA83F704BFF0
:10155800B2FA82FE77440B3FE41BB7F1200E2FBF8F
:1015680002FA0EF3BB40C7F1200E22FA0EFE38BF76
:1015780043EA0E03BA40641C82E750EA410E14BFE6
:1015880052EA430E6FF000014FF4001717EB430FB8
:101598008ABF194617EB410FB5E74CEA0551002001
:1015A800B0BDD4F10104B4F120070FDAC4F120076B
:1015B800520828BF42F0010210FA07F501FA07F7AE
:1015C800E1BF2A43E0403843E1400FE0352C98DC86
:1015D800C7F1200452EA400220FA07F218BF42F08D
:1015E800010231FA07F0A1400A43002172F10042DA
:1015F80050F1000051EB0C01B0BD00002DE9F041A5
:1016080040F2FF7581EA030C0CF0004C15EA115406
:101618001DBF15EA1357AC42AF42E9E0BC41C1F324
:101628001301C3F31303801A994143F4801304D2BE
:10163800641E4000494180185941C90241EA50518D
:10164800B1FBF3F603FB1611A2FB0675D7EBC0201E
:10165800A94102D2761E80185941C90241EA505167
:10166800B1FBF3FE03FB1E11A2FB0E75D7EBC020E6
:10167800A94103D2AEF1010E80185941890241EA0D
:101688009051760546EA8E2EB1FBF3F603FB161150
:10169800A2FB0675D7EB8020A94102D2761E8018DE
:1016A8005941C90241EA50514EEA060EB1FBF3F620
:1016B80003FB1611A2FB0675D7EBC020A94102D285
:1016C800761E80185941C90241EA5051B1FBF3F71F
:1016D80003FB1711A2FB0735D3EBC020A94167F123
:1016E80000070CBF004247F0010766F3D5274FEA11
:1016F8001E31B80814F5806414DDBD0775F1004289
:1017080050EB0E5051EB045111F5801F5CBF41EABC
:101718000C01BDE8F0814CF07F6141F0E041002010
:10172800BDE8F081BD076D0840EA0E5041F4801114
:10173800D4F10104B4F120060ADAC4F1200602004B
:10174800E04001FA06F3E1401843B24015430EE0C9
:10175800342C14DCC6F1200445EA40056D0820FA53
:1017680006F2154321FA06F0A1400D43002175F158
:10177800004250F1000051EB0C01BDE8F08100205F
:101788005FEA0C01BDE8F081CFB992185B41B3FA6A
:1017980083F704BFB2FA82F6BF190B3FB7F12006F0
:1017A8002FBF02FA06F3BB40C7F1200622FA06F65D
:1017B80038BF3343BA401CB1E419641E2FE77F4297
:1017C80031F00041B1FA81F404BFB0FA80F6A419EF
:1017D8000B3CB4F120062FBF00FA06F1A140C4F17A
:1017E800200620FA06F638BF3143A0403C1B16E716
:1017F800AC421ABF05EA1357AF4214E050EA41065B
:101808001CBF52EA4306BFE750EA4107304661462B
:101818001CBF41EA0551BDE8F08152EA430C08BFFC
:10182800C143BDE8F08100204FF4001616EB410FCC
:1018380098BF16EB430F08BF16EB410F24BFC143F7
:1018480005E016EB430F0CBF61464CEA0551BDE8B5
:10185800F08191FBF2F303FB1211C0E900317047EC
:1018680070470000841A71EB030603D2001BB141D4
:10187800121973414FF4001C1CEB410F34BF7CEB71
:10188800430443E00C0DA4EB1356352E50DC45EA17
:10189800C323DB0A45EAC121C912B6F120050DDDD3
:1018A80063FA05F6EB4086EA0305124218BF45F0D5
:1018B8000105C01851F100010CD213E062FA06F5D7
:1018C800F2405540F3415A40B340F3405A40801823
:1018D800594107D349085FEA30005FEA350528BF58
:1018E80045F0010501F58011420875F1004250F1FB
:1018F800000041EB0451F0BC4FF4001C1CEB410FFD
:1019080038BF70470020090D090570471CEB410FCF
:1019180010D252EA43060BD0BCEB410F05D80C0D90
:10192800AB43661E342EB5DD02E0AB438018594147
:10193800F0BC7047F0BC70478B0013EB401313F1F9
:1019480084431A6070470200880010EB421010F1BF
:1019580084400068704710F1C0621160704710F150
:1019680080621160704770B504000D0016002900F0
:101978002000FFF7F4FF31002000FFF7ECFF70BDF7
:10198800006808407047012111FA00F0704738B527
:101998000400B4F5004F01D2012000E00020C0B2DD
:1019A800601CB0FA80F0D0F11F0005002800FFF796
:1019B800EAFF401E844201D1012000E00020C0B2AD
:1019C800280032BDDFF8CC1809680800704738B520
:1019D800DFF8C40800F00DFB0500EDB22800082868
:1019E80005D0092807D100F0A3FD040005E0FFF7A2
:1019F800E9FF040001E000200400200032BD10B41B
:101A0800DFF8A0381B68002B01D0012200E000227B
:101A180041F67133DFF88C482360DFF868381B68BB
:101A280013F040731900DFF86038984207D2DFF8E6
:101A38005C38984203D35FF08073190001E00023FB
:101A48001900DFF840381B6833F040730B43DFF8A8
:101A580034482360D2B2002A03D00023DFF8444878
:101A6800236010BC704780B500F060FDFFF7C7FF2A
:101A780001BD70B5040000262000DFF81418884264
:101A880007D0DFF81818884203D0DFF828188842F2
:101A980000D1FFE7200000F0ACFA05002000DFF8D5
:101AA800F017884208D0DFF8F41788420BD0DFF827
:101AB800041888420ED014E0DFF8EC07006810F034
:101AC800070005000DE0DFF8E407006810F00700E4
:101AD800050006E0DFF8D807006810F007000500E9
:101AE800FFE7002D21D0022D08D003D3042D09D003
:101AF8000CD31CE000F041FD060018E000F043FDA7
:101B0800060014E000F03CFD060010E0DFF8A8072E
:101B18000068C00104D500F0F9FC8008060003E065
:101B280000F0F4FC4008060001E000200600300048
:101B380070BDDFF86C170968C90704D4DFF87C1793
:101B480009680142FAD1704710B50400200000F07E
:101B5800FAF8401C10BD38B504000D00691E2000BD
:101B680000F05FF931BD2DE9F04104000D005FF090
:101B78000008C4F30320C0B201280CD0022812D0F8
:101B880005280CD0062812D0072816D009281AD004
:101B98000A281FD022E0DFF8140806001FE0DFF84B
:101BA800100806001BE0DFF80C08060017E0DFF855
:101BB800080806000120804611E0DFF8000806004A
:101BC800102080460BE0DFF8E00806005FF4803064
:101BD800804604E0DFF8E808060000E00EE0C4F301
:101BE80004300700B8F1000F02D04046FFF7A1FF0C
:101BF800EDB22A0039003000FFF79EFEBDE8F08103
:101C080038B5040014F47810002826D0B0F5003F49
:101C18003FD0B0F5802F2CD0B0F5002F35D0B0F5DF
:101C2800202F42D0B0F5402F00F08180B0F5602F12
:101C380000F08180B0F5801F49D0B0F5901F4CD0DE
:101C4800B0F5A01F5ED0B0F5C01F3AD0B0F5D01FD8
:101C580052D0B0F5F01F64D071E000F069FC0500C7
:101C6800DFF854060068C0F30420401CB5FBF0F50B
:101C780067E000F05DFC0500DFF830080068C0F39D
:101C88000820401CB5FBF0F55BE000F051FC0500B6
:101C980057E000F04DFC0500DFF814080068C0F3B9
:101CA8000820401CB5FBF0F54BE000F041FC0500B6
:101CB800DFF800080068C0F30420401CB5FBF0F50D
:101CC8003FE0DFF8CC05FFF7D4FE050039E0DFF888
:101CD800E405FFF7CEFE050033E0DFF8B405FFF7B3
:101CE800C8FE0500DFF8D407006810F00F00FFF702
:101CF8004AFEB5FBF0F524E0DFF8A005FFF7B9FED2
:101D080005001EE0DFF89405FFF7B3FE0500DFF8D5
:101D1800B407006810F00300FFF735FEB5FBF0F5D7
:101D28000FE0DFF89005FFF7A4FE050009E0FFF7D4
:101D38004EFE050005E0FFF745FE050001E0002026
:101D48000500280032BD70B50400C4F30310050077
:101D5800280001280ED0022813D0032818D0042800
:101D68001DD0052822D0072827D0082838D00928D0
:101D780049D052E0DFF840050068C0F304200600AF
:101D88004DE0DFF830070068C0F30420060046E0A5
:101D9800DFF824050068C0F3006006003FE0DFF8C4
:101DA8000C070068C0F30820060038E0DFF80007D9
:101DB8000068C0F30820060031E0DFF80C07844211
:101DC8000BD1DFF8F806006810F00F0006003000AD
:101DD800FFF7D9FD401E060001E0002006001EE0C6
:101DE800DFF8E80684420BD1DFF8D806006810F067
:101DF800030006003000FFF7C6FD401E060001E0A4
:101E0800002006000BE0DFF8C806844202D100205B
:101E1800060001E00020060001E000200600300076
:101E280070BDF8B504000D00C4F3031007003800B6
:101E3800012810D002281FD003282ED004283DD016
:101E480005284DD0072867D0082800F09C8009286D
:101E580000F0B580CCE0202D01D2012000E0002068
:101E6800C0B2DFF85404006830F4F85050EA052096
:101E7800DFF844140860BBE0202D01D2012000E007
:101E88000020C0B2DFF82C06006830F4F85050EAA1
:101E98000520DFF820160860AAE0022D01D20120F3
:101EA80000E00020C0B2DFF81004006830F0807055
:101EB80050EA0560DFF80014086099E0B5F5007F86
:101EC80001D2012000E00020C0B2DFF8E005006880
:101ED8006FF3102050EA0520DFF8D015086087E07E
:101EE800B5F5007F01D2012000E00020C0B2DFF884
:101EF8009C03FFF784FDDFF8B80500686FF3102036
:101F080050EA0520DFF8A815086000F0FFFA06007F
:101F18003000FFF774FD6BE02000DFF8B41588424D
:101F280004D0DFF8A415884214D02BE0002D01D18D
:101F3800012000E00020C0B25FF48020FFF7F9FD27
:101F4800DFF890050068000900012843DFF88415D0
:101F5800086017E0B5F5004F01D8012000E0002027
:101F6800C0B22800FFF713FD05000420FFF7E1FDCC
:101F7800DFF848050068000900012843DFF83C1530
:101F88000860FFE734E0DFF84405844216D1092DE4
:101F980001D2012000E00020C0B22800FFF7F7FCC2
:101FA80005004020FFF7C5FDDFF818050068800828
:101FB80080002843DFF80C150860FFE718E0DFF819
:101FC8001005844213D1002D01D1012000E000202A
:101FD800C0B25FF48020FFF7ACFDDFF8F8040068BA
:101FE800000900012843DFF8EC140860FFE7FFE769
:101FF800F1BD0100012011F00F031A001300012B9D
:1020080008D0022B1ED0032B34D0052B4ED0062B24
:1020180063D073E0DFF8C0341B6813F00703022BAA
:102028000AD00CD3042B01D003D308E002231800F4
:1020380007E00323180004E00423180001E0052347
:1020480018005DE0DFF860321B6813F00703012B0E
:1020580004D0022B05D0042B06D008E00323180077
:1020680007E00223180004E00A23180001E0012316
:10207800180045E08D4B1B6813F00703012B06D0B1
:1020880011D3032B0CD005D3042B06D00BE003236C
:1020980018000AE00223180007E00A23180004E0E9
:1020A8000623180001E00123180029E0804B1B6873
:1020B80013F00703012B04D0022B05D0042B06D004
:1020C80008E00323180007E00223180004E00A23AD
:1020D800180001E00123180012E0DFF800341B6843
:1020E80013F00103002B04D0012B04D1092318009D
:1020F80001E0082318000823180001E00023180055
:10210800C0B270472DE9F84F04000D0003260327DD
:102118005FF0000B14F00F0082465046012806D0ED
:10212800022849D0032861D0052852D0A7E0EDB293
:102138002800022808D003280BD004280ED0052830
:102148001FD00A2822D022E0042006000020070021
:102158001EE0032006000120070019E00220070006
:102168000220060000F0FFF9DFF87413884207D355
:10217800DFF83802006850F48030DFF83012086069
:1021880006E0012006000320070001E077E076E082
:10219800012201213800C0B200F012F9FFF763FCF8
:1021A800DFF83403066000F0EDFA00F0AFF980467E
:1021B8004046FFF724FC62E0BBF1000F02D1DFF8D4
:1021C800E8B0FFE7EDB2062D01D0012000E00020C5
:1021D800C0B2BBF1000F02D1DFF8D4B0FFE7EDB217
:1021E800062D01D0012000E00020C0B2BBF1000F95
:1021F80002D1DFF8B8B0FFE7EDB22800012808D017
:10220800022809D003280FD0062815D00A282FD075
:1022180031E0002081462FE001220121002000F05A
:10222800CFF80220814627E001220121012000F099
:10223800C7F8012081461FE001220021DFF8700164
:10224800FFF77AFB0320814600F060F98046DFF84B
:10225800900280450BD301221021DFF85001FFF7CF
:102268006BFB01221821DFF85002FFF765FB03E042
:102278000420814600E002E0CBF80090FFE7BDE8CB
:10228800F18F000004000E40015A620281BA8C01ED
:10229800020018002000002006000C0003001A00AD
:1022A80044410E4040000E4080400E4084400E40A5
:1022B80088400E4005001E0000410E4040410E407F
:1022C80070B504001120FFF794FE042801D0012006
:1022D80000E00020C0B200220021022000F070F8C7
:1022E8002078002802D04FF4807000E00020E178C8
:1022F800002902D05FF0804100E000216278002AC6
:1023080002D05FF0805200E00022A378002B02D0B8
:102318005FF0005300E000230843104353EA000233
:10232800DFF8C411DFF8BC01FFF71DFB227B072192
:10233800DFF8B801FFF717FBA088217A090751EAEF
:10234800C020A17A084350F40002DFF8A411DFF896
:10235800A401FFF708FB607AC01C05000F200600E7
:10236800AE4201D23500FFE72D07E088617AC90146
:1023780051EAC020E17A084355EA00027FF07F6104
:102388005D48FFF7F0FA607BA17B090351EA004042
:10239800E17B50EA0120217C50EA0110617C51EA7E
:1023A800000256495648FFF7DEFA70BD00400E405D
:1023B800B0400E40C0400E40E0400E40E8400E40A5
:1023C8002DE9F04704000D001600E4B2002C29D0D6
:1023D800022C0CD01DD3042C12D02ED20120814601
:1023E80002208246012007000020804626E00420C3
:1023F80081460820824603200700022080461DE00F
:1024080010208146202082460520070004208046AF
:1024180014E04020814680208246072007000620DD
:1024280080460BE04FF4807081464FF4007082467E
:10243800092007000820804600E033E0EDB2002DB7
:1024480025D03048C0F8009041462F48FFF77BFA66
:102458000028F9D0F6B2002E22D039002A48FFF71A
:1024680072FA0028F9D0E4B2022C19D130211D48A3
:10247800FFF786FA002813D117212348FFF763FADC
:102488000028F9D016212048FFF75DFA08E01D481A
:10249800C0F800A041461C48FFF755FA0028F9D1BA
:1024A80000F070F9BDE8F087F0400E400C410E4096
:1024B80008410E4014410E4000410E4020410E409C
:1024C80050410E4028410E4070061200800714004B
:1024D8009009100030410E4074400E4070400E408C
:1024E8000148E80124400E400001007028400E40D9
:1024F8007FF8EFFF2C400E4030400E40FFFF0F00EA
:1025080034400E4060400E4090400E4038B500F018
:102518000FF804001D480068C0F308200500681C77
:10252800B4FBF0F41A480460200032BD1948704723
:102538001949096811F0070102290CD00FD30429A1
:1025480001D004D30BE01549096808000AE04FF4EC
:102558000041080006E012490968080002E0114934
:102568000968080070470E48006870470E48006800
:1025780050F470000C49086070474FF400407047F1
:102588004FF47A70704705480068704708410E405C
:10259800AC090020005A620294400E402800002036
:1025A800240000202C00002088ED00E080B5FFF713
:1025B800ADFF01BD8B0013EB401313F184431A6088
:1025C80070470020DFF8EC170860704745F60E00EA
:1025D800DFF8E01708607047DFF8E0070068C0B26E
:1025E8007047DFF8DC070068000CC0B2704738B5E8
:1025F800DFF8C007006810F001000500FFF7E6FFEC
:1026080000200400DFF8B007007810F00100044350
:10261800DFF8A4070078C00601D5102000E00020EC
:102628000443DFF894070078400601D5402000E015
:1026380000200443DFF880070078400701D5042014
:1026480000E000200443DFF870070068C00502D5E9
:102658004FF4807000E000200443DFF8680704604E
:10266800DFF86407007810F0070002281DD026D391
:10267800042810D023D2DFF854070068800009D45A
:10268800DFF84C0700680006FAD50320DFF8441786
:102698000860FFE713E0DFF8380700688005FAD51F
:1026A8000420DFF83017086009E0DFF82407006825
:1026B8000007FAD50220DFF81C170860FFE7002D95
:1026C80001D0FFF77EFF31BD38B50400E4B2002C1D
:1026D80013D0DFF804070068DFF800170860DFF898
:1026E800F806006830F47F40050055F47745DFF8B8
:1026F800E806056000F0DDF807E0DFF8E0060068AE
:10270800DFF8D416086000F0D4F831BDDFF8D00641
:102718000078012806D1DFF8CC0600680220DFF82F
:10272800C0160870704710B50400DFF8A4060068EA
:10273800DFF884160860DFF8B0060068DFF888164E
:102748000880DFF8A806006850F00400DFF89C163F
:1027580008600120FFF7B8FFFFF7D8FF30BF00205F
:10276800FFF7B2FFE4B2002C02D0FFF740FF08E009
:10277800DFF85406007810F00700012801D0FFF7B1
:1027880015FF10BDDFF848060068DFF82C16086052
:10279800DFF854060068DFF8301608807047F0B498
:1027A800DFF84C36DFF84C46DFF84C56DFF84C665D
:1027B800DFF84C76DFF84CC6DFF84C06006810F1FD
:1027C800010F21D058680100186802001160606884
:1027D8000100206802001160686801002868020092
:1027E80011607068010030680200116078680100AB
:1027F800386802001160DCF804000100DCF8000011
:1028080002001160012000E00020F0BC704738B5DC
:10281800DFF8F805006850F08070DFF8F015086000
:10282800DFF8EC050068C008C000DFF8E4150860B0
:10283800DFF8E005006830F0C040DFF8D815086020
:10284800FFF7CFFE050000A800F00AFBEDB2102D3F
:1028580002DBEDB21C2D05DBEDB2512D02D0EDB23D
:10286800532D25D19DF80100012821D19DF80000A4
:1028780003281DDADFF868050078002818D1DFF88A
:102888009805006850F00100DFF88C150860DFF843
:10289800840500680400DFF884050440DFF880053B
:1028A8000443DFF8700504600120DFF83415087070
:1028B80031BD30B4DFF820351B68C3F303231A0099
:1028C800DFF860351B88541C05256C43B3FBF4F313
:1028D8005B1E18005023541C05256C43B3FBF4F30E
:1028E8005B1E190000060905DFF8EC341B6833F09D
:1028F800EE6303430B43DFF8E044236030BC7047CA
:1029080010B50400DFF81C050480FFF7D2FF10BDE6
:10291800F8B504000D00FFF75FFE0600F6B2042EBE
:102928000BDADFF8040500680700E4B2002C02D0D7
:10293800C7F3072719E0FFB217E0DFF8F0040068D3
:102948000700002D05D0022D08D004D3032D08D090
:1029580009E0FFB209E0C7F3072706E0C7F3074716
:1029680003E03F0E01E0002010E03F0337F4704021
:10297800002801D0002009E0DFF89004006830F456
:1029880070403843DFF8841408600120F2BD10B5A8
:102998000400DFF89C040068C007FAD4E4B2002CF5
:1029A80001D1002200E001220D21DFF88804FFF7A1
:1029B80001FEDFF83004006880088000E4B220439C
:1029C800DFF82014086010BD38B504002078DFF85F
:1029D80068140860DFF86004006810F00F002178C0
:1029E800884201D000205BE0FFF7D9FE2089C92882
:1029F80001DA012000E00020C0B22089A1888842C5
:102A080001D3012000E00020C0B26078012806D17F
:102A1800A088C92801DA012000E00020C0B2E088BF
:102A2800652801DA012000E00020C0B25FF0805084
:102A38000500E0880B2801DA00200500DFF898037C
:102A48000068DFF8F81308402843E17A0843DFF804
:102A580088130860FFF7DBFE2089FFF751FFA08885
:102A680000F057F96088DFF8D813088001220121A7
:102A7800DFF8CC03008800F014F8002801D100200A
:102A88000EE06078FFF783FFA07A002801D00122CA
:102A980000E000220521DFF8AC03FFF78BFD0120E1
:102AA80032BD2DE9F74F84B05FF0000B00250026FA
:102AB800002000900020019000208DF80800DFF829
:102AC8007803006810F00F0002280FD10498B0F5C1
:102AD800966F08D3049840F6B931884203D2012092
:102AE8008DF8080002E000208DF808009DF8080025
:102AF800002801D1002009E100200400E4B2022CE2
:102B080080F20381E4B2002C03D19DF81400002860
:102B180006D0E4B2012C04D19DF81800002800D199
:102B2800F1E0E4B2002C02D0DFF81C7301E0DFF81A
:102B38001C73E4B2002C02D05FF0080801E05FF0DB
:102B480001080498B0F5E16F02D95FF0010901E0CE
:102B58005FF000095FFA89F9B9F1000F0ED04FF460
:102B6800E160009040F6B8300190E4B2002C02D049
:102B78005FF0020A0AE05FF0010A07E04FF496608E
:102B880000904FF4E160019000208246E4B2002CEE
:102B980018D05FFA89F9B9F1000F09D0DFF8B0024F
:102BA800006883465FEA1B600500CBF3074B8AE0A9
:102BB800DFF89C0200688346CBF3072005005FFA24
:102BC8008BFB80E0DFF81002006810F040500390A3
:102BD8001AF0405F01D1012000E00020C0B2039844
:102BE80050EA0A0000283CD0401E12D07FF0704105
:102BF800401A40D0401E16D07FF07041401A44D091
:102C0800401E1AD07FF07041401A48D0401E1ED096
:102C18004FE0DFF8400200688346CBF30720050049
:102C28005FFA8BFB45E0DFF82C02006883465FEA19
:102C38001B600500CBF3074B3BE0DFF81C02006884
:102C48008346CBF3072005005FFA8BFB31E0DFF802
:102C58000802006883465FEA1B600500CBF3074B58
:102C680027E0DFF8A40100688346CBF307200500BE
:102C78005FFA8BFB1DE0DFF89001006883465FEA8E
:102C88001B600500CBF3074B13E0DFF8D0010068A9
:102C98008346CBF3072005005FFA8BFB09E0DFF8DA
:102CA800BC01006883465FEA1B600500CBF3074B55
:102CB800FFE70398010F4846C0B2FFF729FE002836
:102CC80001D1002022E0BBF1FF0F03D1FF2D01D17C
:102CD80000201BE004980099401AB5EB0B0148430B
:102CE8000199009A891AB0FBF1F006001BEB060661
:102CF800B54201D35E4501D2002007E016FA08F07C
:102D08005AEA00003860641CF8E6012007B0BDE804
:102D1800F08F70B504000025DFF8F400006810F0AB
:102D28000706DFF8B4000068C00710D5022E0ED3DE
:102D3800142C02D2042005002DE0142C04D3282CD6
:102D480002D20820050026E01020050023E0DFF865
:102D580088000068C00710D4022E0ED20A2C02D2B6
:102D68000420050017E00A2C04D3142C02D20820F2
:102D7800050010E0102005000DE017480068C007A6
:102D880009D5022E07D2282C02D20820050002E01D
:102D980010200500FFE76D1E280350EA05250E48A0
:102DA800006830F47F4028430B490860FFF781FD35
:102DB80070BD000080410E408C0900200082E00FA9
:102DC800FC81E00F60400E40B009002024400E4016
:102DD80090400E4074400E404C300E409009002048
:102DE800B909002040300E4094400E4010ED00E03C
:102DF8003880E00F4080E00F4880E00F5080E00FFF
:102E08005880E00F6080E00F1C83E00F6C300E40AC
:102E180070300E4060300E4044300E40000F0EF00F
:102E2800B4C0400BB20900202C83E00F3083E00FC0
:102E380078300E4054300E4038300E40FEFFFFCF41
:102E4800B40900203C300E405C300E4064300E4027
:102E58001883E00F2483E00F2883E00F2083E00F1E
:102E68000E4A126812F00F02920011000C4A126802
:102E7800C2F3811211438170094A126812F03F02AD
:102E88004270084A126812F0F0021100064A1268ED
:102E9800C2F3031211430170704700BFE4FF0FE053
:102EA800E0FF0FE0E8FF0FE0ECFF0FE0012110F07A
:102EB8001F029140DFF83C2740B2430942F8231033
:102EC8007047012110F01F029140DFF82C2740B213
:102ED800430942F8231070470100002904D0B1F5D6
:102EE800004F01D8012200E00022D2B2B1FA81F2EB
:102EF800D2F11F021000704772B6DFF800070068B1
:102F080010F1010F06D0DFF8F4060068401CDFF866
:102F1800EC160860DFF8E40600687047DFF8DC06A6
:102F2800006800280FD0DFF8D4060068401EDFF8DC
:102F3800CC261060DFF8C40600680100002900D123
:102F480062B6080000E000207047032801DA01217A
:102F580000E00021C9B2DFF8A81611EB00104068A4
:102F68007047032801DA012200E00022D2B2DFF81C
:102F7800902612EB001251607047DFF8880600684F
:102F88007047DFF8841608607047DFF88016096814
:102F98008143DFF8782611607047DFF870160968FA
:102FA8000143DFF8682611607047DFF8640600689F
:102FB800704770B5040000260025FFF79DFF042E1A
:102FC80009DADFF85006282101FB0600807F002877
:102FD80001D0761CF3E7042E03D1DFF83C06050088
:102FE8000FE0002C0AD00120DFF82816282202FB67
:102FF8000611887726600020050002E0DFF81C062D
:103008000500FFF78BFF280070BD70B5DFF81406C8
:103018000078002801D0002049E00120DFF80416DC
:1030280008700121DFF80006FEF79DFD0221DFF898
:10303800FC05FFF767F80820FFF74EFFDFF8F015EB
:1030480008710121DFF8EC05FEF78DFDDFF8E005DA
:1030580000F034FBDFF8E015012000F000FB40F23F
:10306800FF70FFF792FF40F2FF70FFF78AFF002022
:10307800DFF8901508601D20FFF723FF1D20FFF7DC
:1030880015FFA0240025DFF88C652A0021003000F8
:1030980000F034FB0020DFF8A41508700020DFF8EA
:1030A800A01508700020DFF89C150860002070BD8E
:1030B8002DE9F24F84B0040092461F000026042C2C
:1030C80002D3DFF85C0522E1FFF716FFDFF84405BD
:1030D800282101FB0400807F002804D1FFF71EFF90
:1030E800DFF8640513E1BAF1000F09D138000028B0
:1030F80002D00E992000B847FFF710FF002006E124
:10310800FFF73BFF0500DFF80C05282101FB040051
:1031180087614FF40040A0FB0A0110F57A6051F175
:1031280000014FF4FA520023FDF702FFDFF8E42410
:10313800282303FB0422C2E902019DF8100001289C
:1031480028D14FF47A7000FB0AF00021CDE9000184
:10315800DFF8C004282101FB0400D0E90223F42091
:103168000021A0FB028900FB039901FB0299DDE91C
:103178000001B0EB080071EB0901DFF89814282270
:1031880002FB041108617A20DFF88814282202FB68
:1031980004114861DFF87C04282101FB0402D2E90C
:1031A8000201401C51F10001DFF86824282303FBC9
:1031B8000422C2E900010120DFF85814282202FB8A
:1031C800041108779DF81000DFF84814282202FB44
:1031D8000411C8770E98DFF83C14282202FB04116A
:1031E8000862DFF858040078002803D0FFF796FE3D
:1031F80000208CE0DFF84C04006810F1010F06D0C5
:10320800DFF840040068401CDFF838140860DFF875
:103218003004007800282CD1DFF830040560042041
:10322800FFF7AFFEDFF8EC03282101FB0400D0E92B
:1032380000237FF0640000218B420BD801D3824227
:1032480008D2DFF8D003282101FB0402D2E90001EB
:10325800834601E07FF0640B1BEB05010120FFF7BB
:1032680080FE0420FFF799FE0120DFF8D4130870D0
:103278003EE0DFF8D0030068012839D10020DFF8EC
:103288009413282202FB041108770420FFF77DFE1F
:10329800DFF8B8030068281A0290029800F071F865
:1032A80000F03FF9002E06D10120DFF8681328222C
:1032B80002FB04110877761C280000F04DF9FFF78F
:1032C8005CFE0500DFF884030068281A02900120DC
:1032D800FFF73BFEDFF874130968401A0390DFF824
:1032E80060030078002803D0039802998842CCD361
:1032F800DFF850030068002806D0DFF848030068AC
:10330800401EDFF840130860FFF708FE002005B0F4
:10331800BDE8F08FF8B5FFF7EFFDFFF746FE0400B4
:1033280060072BD50120C5490870FFF726FE060067
:103338000420FFF72AFEC5480068301A0500280057
:1033480000F01FF800F0EDF8300000F005F9FFF785
:1033580014FE0600BD480068301A05000120FFF77A
:10336800F4FDBA490968401A0700B54800780028F2
:1033780001D0AF42DCD30020B0490870FFF7CEFD82
:10338800F1BDF0B400210A00042A80F2C8800021AF
:10339800A04B282404FB023359779E49282303FBBA
:1033A8000211097F002900F0B8800021994B2824D8
:1033B80004FB0233D3E90045A94212D801D3A04245
:1033C8000FD29449282303FB0211D1E900450021BB
:1033D800241A8D418F49282303FB0211C1E90045B6
:1033E8009BE08C49282303FB0211C97F002906D1E1
:1033F8000021884B282404FB0233197780E0854993
:10340800282303FB0211D1E900458249282303FB45
:103418000211D1E902670021361A8F41A4197D41B2
:103428007C49282303FB0211C1E900457949282377
:1034380003FB02110969012931DB7649282303FBC3
:1034480002114969734B282404FB02331B6959187C
:10345800704B282404FB023359616E49282303FB6F
:1034680002114969F4294BD36A49282303FB021145
:10347800D1E90045641C55F100056649282303FB82
:103488000211C1E900456349282303FB0211496978
:10349800F439604B282404FB0233596130E05D495C
:1034A800282303FB021149695A4B282404FB0233E1
:1034B8001B69C91A574B282404FB02335961554923
:1034C800282303FB02114969F42919D351492823F8
:1034D80003FB0211D1E90045641E75F100054D4951
:1034E800282303FB0211C1E900454A49282303FBAD
:1034F80002114969F439474B282404FB0233596106
:103508004449282303FB02118969002905D00121B8
:10351800404B282404FB02335977521C34E7F0BC93
:10352800704710B500200400042C14DA394828210B
:1035380001FB0400407F00280BD03648282101FBFE
:103548000400016A2000334A282303FB04229269FD
:103558009047641CE8E710BDF8B506005FF0FF343B
:103568005FF0FF3500200700042F1BDA29482821C7
:1035780001FB0700007F002812D02648282101FB04
:103588000700D0E90023AB420AD801D3A24207D2F0
:103598002048282101FB0700D0E9002314001D0062
:1035A8007F1CE1E70020264908705FF0FF305FF0DC
:1035B800FF318D4201D184421AD07FF0640000218E
:1035C8008D4203D801D3844200D202E07FF0640424
:1035D80000251E4806600420FFF7D3FCA11901202E
:1035E800FFF7BFFC0120164908700420FFF7D5FC3F
:1035F800F1BD000000E100E080E200E09409002055
:103608004020044008200440202004402420044096
:103618001820044038080020011000F0041000F0C1
:10362800021000F0BC0900200005080005001E007B
:10363800000000209009100014000020BA090020A2
:10364800BB090020A8090020031000F0A4090020ED
:103658008B0013EB401313F184431A60704710B4C6
:10366800032801DA012200E00022D2B24A79202A96
:1036780001D2012200E00022D2B20A784B7852EA45
:1036880083028B7852EA8312CB7852EA03120B79C1
:1036980052EAC3224B7952EA03328B7952EA434207
:1036A800144B0401E25010BC704710B50400E4B29A
:1036B800220000211048FFF7CBFF10BD01784278A7
:1036C80051EA8201827851EA0211C27851EA421124
:1036D800027951EA0221427951EA0231827951EAAA
:1036E800C231C27951EA0241027A51EA4241024AA0
:1036F80011607047402004400020044062F30F220C
:1037080062F31F42401810F0030308D0C91A1FD3F0
:10371800DB0748BF00F8012D28BF20F8022D130051
:1037280030B414461546103928BF20E93C00FAD8B1
:10373800490728BF20E90C0048BF40F8042D89003C
:1037480028BF20F8022D48BF00F8012D30BC704773
:10375800C91818BF00F8012DCB0728BF00F8012DA4
:10376800704700008B0013EB401313F184431A6079
:10377800704710F1C0621160704710F180621160EB
:10378800704770B504000D00160029002000FFF7EF
:10379800F4FF31002000FFF7ECFF70BD2DE9F04782
:1037A80004000D0016001F00002E67D0206830F4BA
:1037B80040702060FFB23A024FF440712000FFF7DA
:1037C800E0FF002D04D1DFF84004FEF719FA0500E8
:1037D8005FF0FF3081462068800712D5FFB2002FC6
:1037E80003D0022F09D004D31DE0DFF8240481465A
:1037F80019E0DFF82004814615E0DFF81C04814653
:1038080011E0FFB2002F03D0022F09D004D30AE041
:10381800DFF8FC03814606E0DFF80004814602E099
:10382800DFF8FC038146A94501D2012000E0002011
:10383800C0B2DFF8D803FFB2385C8046B5EBC600EB
:1038480006FB08F1B0FBF1F0401E8246BAF1000F0A
:1038580001D4012000E00020C0B2BAF5007F01D2F7
:10386800012000E00020C0B22068800704D5BAF12A
:10387800000F01D101208246C4F810A0BDE8F087EE
:1038880038B504000D00DFF89C03844201D1012003
:1038980000E00020C0B200202064DFF88C03E06361
:1038A800687890F00102D2B201212000FFF75AFF98
:1038B8002B7BAA6869682000FFF770FF2A7800212F
:1038C8002000FFF74FFF31BDF0B40100DFF85403CB
:1038D800814201D1012000E00020C0B2DFF844039A
:1038E800814205D1DFF844030400A068050002E026
:1038F8007FF0030046E1486B030013F4C06F0DD05E
:10390800980503D57FF00200607004E0580502D5E1
:103918007FF0010060700920207024E120780028E1
:1039280011D0022854D028D3042800F0858069D308
:10393800062800F0C680C0F09980082800F00681AB
:10394800C0F0D3800AE1A878C00607D52888000A05
:1039580010F0060050F0F000020008E0287810F09F
:10396800FE000200A878800701D552F0010201206C
:103978002070CA6201204860F5E0180609D5802049
:10398800C8635FF0FF306070082020700220486034
:103998001DE058061BD54020C863A878C00605D589
:1039A800022020702878C0B2C86210E0A87880078A
:1039B8000AD507202070207915EBC000008901285E
:1039C80005D10820486002E00520207093E7CAE08E
:1039D800180609D58020C8635FF0FF3060700820A2
:1039E8002070022048600CE058060AD54020C863C1
:1039F800A878800702D50320207001E005202070F8
:103A080079E7B0E0A878C00607D52888001210F03A
:103A1800060050F0F000020003E0287810F0FE00E5
:103A28000200A878400701D552F001020420207056
:103A380001204860CA6296E0180609D58020C8634C
:103A48005FF0FF30607008202070022048600CE0B2
:103A580058060AD54020C863A878400702D5072031
:103A6800207002E00520207045E77CE06088267918
:103A780015EBC6063689B04216D30020608020793F
:103A8800401C2071A878400702D50320207032E737
:103A9800A878C00702D42079022804DB0820207007
:103AA800022048605FE026E76088461C6680267929
:103AB80015EBC606766880B2805DC8620620207065
:103AC80051E0180609D58020C8635FF0FF306070A8
:103AD800082020700220486006E0580604D54020DF
:103AE800C8630520207006E73DE098062DD52679A5
:103AF80015EBC6063689CF6938006788B7420DD2FC
:103B0800678817F1010CA4F802C094F804C015EBFB
:103B1800CC0CDCF804C0BFB207F80C006788B742C9
:103B280008D3012E01D108274F60082727700227E4
:103B38004F600AE004274F60022E06D36788B6F16B
:103B4800010C674501D108274F600CE0D80504D562
:103B58004FF48070C8630920207004E07FF00400EF
:103B6800607009202070207809280AD10020086494
:103B780094F90100012801D10020607094F9010036
:103B880000E00120F0BC704770B504000D00254826
:103B9800844201D1012000E00020C0B221488442C3
:103BA80005D122480600A068C00703D404E07FF0CE
:103BB800030027E020206060A878800702D52889C4
:103BC800002805D0A878400705D5288A002802D102
:103BD8007FF0030016E00020307001207070002094
:103BE800708000203071B560C0206060606B800616
:103BF80000D5E0690C48E0634FF4FC6020642000C5
:103C0800FFF762FE70BD000040410500346500000A
:103C180080841E00404B4C00809FD5004054890092
:103C2800002D310100C00040CFFF070078090020B7
:103C380030B583B00400DFF860040078002801D0B4
:103C4800002055E000F032FA0500002D01D02800D0
:103C58004EE0DFF84814002000F03FFA0500002D80
:103C680001D0280044E0DFF8380400F08AF90500A4
:103C7800002D01D028003BE0DFF82404006800286C
:103C880001D10B2034E0DFF814044068DFF8141485
:103C98000880DFF80804C068DFF8081448800020AE
:103CA800DFF8001488800020DFF8F813C880DFF8F8
:103CB800F4030088DFF8EC130881DFF8E803408894
:103CC800DFF8E01348810120DFF8CC130870DFF833
:103CD800D4030088DFF8CC134988484301900020BA
:103CE8000090002300220021002000F041F800206D
:103CF8003EBD0100DFF8A0030078002801D10120B3
:103D080003E0DFF8A00308600020704730B4040027
:103D1800DFF884030078002801D1012026E0DFF8CD
:103D28008403008892B212FA84F5A84207DBDFF810
:103D3800740340889BB213FA81F5A84201DA042083
:103D480014E092B2002A02D09BB2002B01D10520C8
:103D58000CE0DFF850038480DFF84803C180DFF807
:103D680044030281DFF83C034381002030BC7047E4
:103D78002DE9FC4F87B080460E00139FDFF818032B
:103D88000078002801D10120F8E0DFF8140300686A
:103D9800002801D10120F1E0DFF80003407C002871
:103DA80001D00A20EAE00024DFF8F0028068C008A9
:103DB8000490DFF8E802007C012803D19DF8200078
:103DC800019008E09DF82000002802D10120019010
:103DD80001E0002001900198002801D0FF2500E0B3
:103DE8000025B048C0888619AD480068B6B2049965
:103DF80001FB06000590002F00F0BF80A94800894C
:103E08001FFA88F8B0EB0800B84206D2A548008926
:103E18001FFA88F8B0EB080A00E0BA46B7EB0A07C1
:103E2800A048808810EB08080598049901FB040055
:103E38008346BAF1080F35D21AFA88FA0198002891
:103E480018D01FFA88F8D04580F07F801FFA88F8CC
:103E58005FEAE80010F80B00012118F00702914012
:103E680008431FFA88F85FEAE80101F80B0018F127
:103E78000108E6E71FFA88F8D04566D21FFA88F8E5
:103E88005FEAE80010F80B00012118F007029140E2
:103E980088431FFA88F85FEAE80101F80B0018F177
:103EA8000108E7E71FFA88F818F0070003901FFADF
:103EB80088F81BEBE80B039800281BD09BF8000040
:103EC8008146012003998840401E8DF800009DF826
:103ED800000010EA09099DF8000035EA000050EAE0
:103EE80009098BF800901BF1010B0398D0F1080029
:103EF800BAEB000A5FEADA000290029800280DD0B7
:103F080002980690EDB22A0006995846FFF7F6FB8C
:103F18000298BAEBC00A029810EB0B0BBAF1000F2B
:103F280013D09BF800008146012010FA0AF0401EC9
:103F38008DF800009DF8000039EA00099DF800009E
:103F4800284050EA09098BF80090574814FA86F17E
:103F58004911554A14FA86F35B1152F823200123BC
:103F680014EB060C1CF01F0C13FA0CF31A4340F860
:103F7800212000208046641C3DE7002009B0BDE8F0
:103F8800F08FF8B50400464B4448C268434841687E
:103F98004248424DAD69A84741480068002801D110
:103FA8000B200BE03E48006820601025FF263E4F9E
:103FB800320029003800FFF7A1FB0020F2BD2DE9EF
:103FC800F04F85B035488068C008039036480768C8
:103FD8005FF00108002005000020040060192F4947
:103FE800C96888422FD2F80701D5641C1EE0002C4E
:103FF8001BD02B480068039901FB0500029001942F
:10400800009526484368002202992448DFF88CC0AE
:10401800DCF820C0E0470600002E01D0300037E071
:10402800601C45190020040000E06D1C601910F0A8
:104038001F0F01D07F08D1E71B4850F82800070060
:1040480018F10108CAE7002C16D015480068039932
:1040580001FB050002900194009510484368002276
:1040680002990E48DFF834C0DCF820C0E0470600AB
:10407800002E01D030000BE05FF010095FF0000A5D
:10408800DFF824B0524649465846FFF737FB002070
:1040980005B0BDE8F08F0000B80900200409002031
:1040A800880900206C0900205C09002038B52D4DD6
:1040B8002D48007800280ED101202B490870286867
:1040C800002808D0286880470400002C01D0200070
:1040D80002E02D1DF3E7002032BD2DE9F041040078
:1040E8000D0021480078002802D12048060010E081
:1040F800012C0CDA2C271F482C2101FB04083A005C
:1041080041462800FCF78CFF0020060001E01A4811
:1041180006003000BDE8F081F8B5040012480078C8
:10412800002802D11148050019E01148006801284B
:1041380013DA2C260F480E4909682C2202FB0107C6
:104148000B480068401C0A4908603200210038000A
:10415800FCF766FF0020050001E00848050028007C
:10416800F2BD00000C000020B609002005001180F7
:1041780084090020D8080020020011800100118065
:1041880010B5FFF793FF0400002C00D0FEE70020D5
:10419800FFF74EFD0400002C00D0FEE7D44800F0E5
:1041A800B9F90400002C00D0FEE70020D04948608F
:1041B8007FF07F40CE498860CE49CD4800F0E2FBD1
:1041C80010BD1CB50400CA4800F02AFAE4B2002C5D
:1041D8000AD1002001900520009005232022C6491D
:1041E800C34800F081FB09E0002001900520009001
:1041F80005232022C149BE4800F076FBFFF7DFFE09
:1042080013BD38B504000D00B94800F009FA2200C2
:104218000321062000F039F8220003212F2000F0A6
:1042280008F82A000321572000F004F9FFF7C7FE19
:1042380031BD70B586B004000D001600092000FBE2
:1042480006F0052190FBF1F010F5FA46310002A8BE
:1042580000F014F902A8FCF723FE00210191009553
:104268002300020002A9A24800F03EFB462000906D
:104278004FF47A7096FBF0F35F2215F1110114F1F7
:104288000F0000F026F806B070BD70B586B00400C7
:104298000D001600310002A800F0F0F802A8FCF7A3
:1042A800FFFD0021019100952300020002A990481A
:1042B80000F01AFB432000904FF47A7096FBF0F35D
:1042C800232215F1110114F10F0000F002F806B0D5
:1042D80070BD2DE9F04F8DB004000D0016009B460F
:1042E80015F14C0715F10308201F0690201D0890B2
:1042F800079515F15A0009900C2315F15A0221006F
:104308007B4800F05FFB06A9794800F00AFC7FF0C3
:104318007F4077494860002075498860BBF1000FED
:1043280002D55FF0010A01E05FF0000A5FFA8AFA3D
:10433800BAF1000F04D05FF0FF3000FB0BFBFFE782
:104348005E4501DAB346FFE7B7EB0800B6EB0B01B1
:104358004843B0FBF6F040198146A01E0290A01C0D
:104368000490CDF80C90059702A9614800F0D9FB9C
:10437800A01E0290A01C0490781E0390781D059042
:1043880002A95B4800F0CDFB092315F15A02210070
:10439800574800F017FB0020554948607FF07F40E0
:1043A80053498860A31D3A00A11F514800F026FC1C
:1043B800A31D4246A11F4E4800F020FC002001909A
:1043C800381F009014F10803012246A1484800F064
:1043D8008BFA330044A204210AA800F055FC0020FF
:1043E8000190B8F10400009014F1080304220AA90E
:1043F8003F4800F079FA5FFA8AFABAF1000F0BD059
:104408000020019015F157000090A31E012237A14A
:10441800374800F069FA0AE00020019015F15700CA
:104428000090A31E012216A9314800F05DFA0DB0D4
:10443800BDE8F08F70B586B004000D00160031009D
:1044480002A800F01BF802A8FCF72AFD0021019140
:1044580000952300020002A9254800F045FA25200E
:1044680000904FF47A70B6FBF0F3642215F1110155
:1044780014F10F00FFF72DFF06B070BD002903D51A
:1044880049422D22027001E020220270002242716E
:104498004FF47A7291FBF2F302FB1312642392FB3E
:1044A800F3F2303202712E22C27042F2107291FB86
:1044B800F2F302FB13124FF47A7392FBF3F23032E9
:1044C80082700F4A91FBF2F302FB131242F210734F
:1044D80092FBF3F2303242704278302A01D1202226
:1044E8004270704730000000256C64002D00000009
:1044F80030090020E0640000F86300001864000040
:10450800A086010010B4040C0C70040A1470187012
:1045180010BC704770B586B00400002C01D105208E
:1045280029E0002060607FF07F40A06000A8FFF7CE
:10453800E0FB0500002D01D028001CE00098206059
:104548000E480FC801AE86E80F0000980088401E8C
:10455800039000984088401E049001A9200000F0B4
:1045680011F80500002D01D0280004E004492000BE
:1045780000F008FA280006B070BD0000D064000002
:10458800F0640000F0B585B004000D00002C01D0E7
:10459800002D01D1052041E02868A968884203DA86
:1045A8006868E968884201DB042037E028682168E8
:1045B8008988884210DB68682168C98888420BDBD3
:1045C80020680089401EA968884205DB2068408968
:1045D800401EE968884201DA03201FE06868E9683C
:1045E8000818431C9BB22868A9680818421C92B294
:1045F800696889B2286880B2FFF788FB06002868D6
:10460800009068680190A8680290E868039000A884
:104618000FC814F10C0787E80F00300005B0F0BD93
:10462800FEB50400002C01D1052023E002AB0DF1FA
:1046380009020DF10A01606800F02CF8200000F072
:104648001AF80700002F01D0380013E0206800890D
:10465800050020684089060006FB05F001909DF8DA
:10466800080000909DF809309DF80A2000210020DC
:10467800FFF77EFBFEBD10B50400002C01D105201C
:1046880007E0206843882068028800210020FFF79F
:104698003DFB10BDF8B504000D0016001F003B00DF
:1046A800320029002000FFF72DFFF1BD70B584B05E
:1046B80004000D001600002C01D1052020E0320076
:1046C800290014F10C0000F006FA002801D101209D
:1046D80016E002AB0DF109020DF10A01A068FFF71F
:1046E80011FF012001909DF8080000909DF8093005
:1046F8009DF80A20310089B2280080B2FFF738FB04
:1047080004B070BDFEB504000D0016001F00002C9B
:1047180001D1052020E03200290014F10C0000F03E
:10472800DAF9002801D1012016E002AB0DF10902E7
:104738000DF10A013800FFF7E5FE012001909DF810
:10474800080000909DF809309DF80A20310089B2D0
:10475800280080B2FFF70CFBFEBD2DE9F64F83B0B1
:1047680004001D005FF0000B002C01D10520B8E00B
:104778009DF80C00202803DB9DF80C007F2801DB46
:104788000220AEE094F82800022810D19DF80C0011
:10479800303807009DF80C003A2801D10A2007009C
:1047A8009DF80C00202806D10B20070003E09DF897
:1047B8000C0020380700208C401EBFB2B84201DA36
:1047C80002208EE0E0690290E0690190E0690090C3
:1047D8000020804694F825001FFA88F880B28045AA
:1047E80079D294F82200012802D0022805D00AE0E4
:1047F8000298BFB2385C81460AE00198BFB230F82F
:104808001700814604E00098BFB250F8270081469F
:104818000020824694F824001FFA8AFA80B2824562
:1048280031D25FEAC97011D515FA88F2049810FAE6
:104838008AF12000FFF73AFF0600022E01D330006C
:104848004FE0002E18D11BF1010B15E09DF8380040
:10485800002811D0636815FA88F2049810FA8AF1D2
:104868002000FFF74FFF0600022E01D3300038E08A
:10487800002E01D11BF1010B1FFA89F95FEA5909D2
:104888001AF1010AC6E71FFA8AFA94F8240094F884
:1048980027100818824518DA9DF83800002811D02A
:1048A800636815FA88F2049810FA8AF12000FFF775
:1048B80029FF0600022E01D3300012E0002E01D19C
:1048C8001BF1010B1AF1010ADDE794F823003F18E8
:1048D80018F101087EE7BBF1000F01D1012000E0CB
:1048E800002005B0BDE8F08F2DE9F44F82B0040038
:1048F8000D001E005FF00008002C01D0002D01D132
:1049080005203DE094F82800002801D1022037E076
:10491800B2460C988346002081460298814529D2E8
:1049280019F805000A2808D1B24694F8250094F829
:104938002610081810EB0B0B19E09DF834000090B6
:104948005B46524619F805102000FFF706FF0700DE
:10495800022F01D3380013E0002F01D118F101080C
:1049680094F8240094F82710081810EB0A0A19F193
:104978000109D2E7B8F1000F01D1012000E00020C1
:10498800BDE8FE8F2DE9F04104000D00002C01D197
:10499800052015E0002D0AD11026002714F11C0867
:1049A8003A0031004046FEF7A9FE052008E010262F
:1049B80014F11C07320029003800FCF731FB0020F5
:1049C800BDE8F0812DE9F84F04000D0016005FF0F6
:1049D8000008DDF800900098D0F1010B5FF0000AA4
:1049E800002C01D1052074E019EB05033200B5EB6A
:1049F8000901200000F002F90700022F01D3380056
:104A080067E0002F01D11AF1010AC8455BDABBF152
:104A1800000F05D55FEA4800401C10EB0B0B07E0C0
:104A2800B9F10109B8EB09004000401C10EB0B0B71
:104A380018EB050319EB0602B5EB0801200000F09E
:104A4800DDF80700022F01D3380042E0002F01D122
:104A58001AF1010A19EB050318EB0602B5EB090177
:104A6800200000F0CBF80700022F01D3380030E017
:104A7800002F01D11AF1010A18EB0503B6EB090260
:104A8800B5EB0801200000F0B9F80700022F01D3A8
:104A980038001EE0002F01D11AF1010A19EB0503B5
:104AA800B6EB0802B5EB0901200000F0A7F80700F3
:104AB800022F01D338000CE0002F01D11AF1010AAE
:104AC80018F10108A1E7BAF1000F01D1012000E0B7
:104AD8000020BDE8F28F0300002B0BD0186881423C
:104AE80008DB9868884205DB5868824202DBD86890
:104AF800904201DA002000E00120704782680368D4
:104B08009A4204DA02681100826802608160C26811
:104B180043689A4204DA42681100C2684260C16080
:104B280070472DE9F04188B004000D002800FFF718
:104B3800E5FF95E80F000DF10C0C8CE80F000398C9
:104B4800E168884201DAE068039060690599884263
:104B580001DA6069059004982169884201DA2069C0
:104B68000490A0690699884201DAA069069002AB10
:104B78000DF109020DF10A01A068FFF78BFD0598F8
:104B88000399401A401C804606980499401A401C14
:104B980007003B009BB2424692B2049989B203983F
:104BA80080B2FFF7B3F80600002E01D0300022E0F3
:104BB80007FB08F001909DF8080000909DF8093067
:104BC8009DF80A2000210020FFF7D2F80600002EE9
:104BD80001D030000FE02069A1690818431C9BB27E
:104BE800E06861690818421C92B2216989B2E068DC
:104BF80080B2FFF78BF808B0BDE8F0812DE9FE43DD
:104C080004000D0016001F00002C01D1052038E01B
:104C18002069864202DBA069B04201DA012030E057
:104C2800AF4202DAA8463D0047466069A84202DB67
:104C3800E068874201DA012023E0E068854201DA72
:104C4800E06805006069B84201DA60690700781B0E
:104C5800401C814602AB0DF109020DF10A01A06862
:104C6800FFF718FDCDF804909DF8080000909DF816
:104C780009309DF80A20310089B2280080B2FFF778
:104C880077F8BDE8FE83000008B400B584B005AB32
:104C980003930023029311B90093019302E000905B
:104CA800481E019003AB00A9074878441A30FBF767
:104CB80007FA009911B1009A00211170002858BF15
:104CC800029804B05DF808FBA7C1FFFF00040A0AB8
:104CD8000403060608020000000000000E040E1F70
:104CE800081F0C1F0E0E00001000010E0E0E0F0EF6
:104CF800071F1F0E110E1C110111110E0F0E0F1E92
:104D08001F11111111111F0E000E040002000100E5
:104D180010000C000104080106000000000000005B
:104D2800020000000000000C040600000000000063
:104D380000040A0A1E130904040404040000000005
:104D4800110611080C0102101111060608000211C3
:104D5800101111110901011111040809011B111188
:104D680011111101041111111111100200080A008A
:104D7800040001001000121E0100000104000000E0
:104D88000000000002000000000000020408020009
:104D98000000000000040A1F0108050202081504AB
:104DA80000000010190410040A0F0108111106066A
:104DB800041F04101011110111010101110408054B
:104DC8000115131111111101041111110A11080211
:104DD80001081100080E0D0E160E02110D060C0921
:104DE800040B0D0E0F160D0E0711111111111F02D4
:104DF80004081500000000000004000A0E04020068
:104E080002080E1F001F00081504080809100F04E7
:104E18000E1E00000200080816110F01110F0F1DC9
:104E28001F040803011515110F110F0E0411111598
:104E3800040A0402020800000010130119110711E6
:104E48001304080504151311111913010211111186
:104E58000A11080104100800000000000000001FEB
:104E680010021500020815040600000413040410BB
:104E78001F10110211100606041F0404151F11014A
:104E8800110101111104080501111911011505106D
:104E9800041111150A04020204080000001E110181
:104EA800111F021E11040803041511110F1E010E13
:104EB80002111115041E040204080000000000007D
:104EC8000000000A0F190900040404040400060283
:104ED8001104021108111102110806040800020049
:104EE80015111111090101111104090901111111FB
:104EF8000109091004110A1511040102080800002B
:104F080000111111110102101104090504111111E8
:104F18000110011012190A150A10020204080000F3
:104F2800000000000004000A04181600080200002F
:104F3800020006010E0E1F0E080E0E020E060002DB
:104F4800100001040E110F0E071F010E110E06119D
:104F58001F11110E0116110F040E040A11041F0E61
:104F6800100E001F001E0F0E1E0E020E110E060957
:104F78000E11110E0110010F0C16040A110E1F0C50
:104F8800040600000000000000000000000000000F
:104F98000000000000000000000000000000000009
:104FA80000000000000000000000000000000000F9
:104FB80000000000000000000000000000000000E9
:104FC80000000000000000000000000000000000D9
:104FD80000000000000000000000000000000000C9
:104FE80000000000000000000000000000186C6CC9
:104FF80010CE3808600C0000000000007C307C7C7B
:10500800C6FE7CFE7C7C000070001C7C7C7C7E7C68
:105018007EFEFE7CC63C78C606C6C67C7E7C7E7C50
:105028007EC6C6C6C6C6FE7C007C10000C00060004
:1050380060003800060000060C00000000000000B8
:10504800000000000000003018188C00000000006C
:1050580000186CFEFC6A2C1830186C18000000C090
:10506800C638C6C6C606C6C0C6C61818387C38C6EE
:10507800C6C6C6C6C60606C6C618306606EECEC67C
:10508800C6C6C6C618C6C6C6C6C6C00C06603800A0
:105098000C00060060000C00061830060C0000002A
:1050A8000000000018000000000000181830D600AA
:1050B80000000000001848FE162E2C18183038186A
:1050C80000000060C63060C0C6060660C6C6181874
:1050D8001C7C70C6F6C6C606C6060606C618303656
:1050E80006FEDEC6C6C6C60618C6C6C66CC6600CB0
:1050F8000C606C00043C3E3C7C3C3C3C3E00006642
:105108000C6E3E3C3E3C363C186666C666667E18AB
:1051180018306200000000000018006C7C10DC00F1
:105128001830FE7E1C7E0030C6303070FE7E7E3029
:105138007CFC00000E00E070F6FE7E06C61E1EF621
:10514800FE18301E06D6F6C67EC67E7C18C6C6D6A3
:1051580038FC300C1860C6000060660666660C668F
:10516800661830360CD6666666666E067C6666C657
:105178003C66300C0060000000000000000000FEEB
:10518800D0E866001830387E1C7E1C18C63018C05F
:10519800C0C0C618C6C018181C7C703076C6C606B3
:1051A800C60606C6C618303606C6E6C606B6C6C061
:1051B80018C6C6FE6CC0180C30600000007C66067D
:1051C800667E0C7C6618301E0CD666663E56063C1B
:1051D800186666D6187C1818183000000000000001
:1051E800001800FE7EAC660030186C1818001C0C05
:1051F800C6300CC6C0C6C60CC6C61818387C3800DF
:1052080006C6C6C6C60606C6C618366606C6C6C6D4
:105218000666C6C618C66CEEC6C00C0C606000FEFA
:105228000066660666060C60661836360CC6666644
:105238000626066018663CD63C600C18183000003C
:10524800000000000018006C10E6DC00600C00187C
:105258000C001C067C78FE7CC07C7C067C7C000CE8
:1052680070001C307CC67E7C7EFE06FCC63C1CC6DC
:10527800FEC6C67C06DCC67C187C38C6C67EFE7CAC
:10528800C07C00FE007C3E3C7C3C0C3E66701C668C
:1052980038C6663C065C063E707C18FC663E7E306E
:1052A80018180000000000000000000000000000C6
:1052B80000000000000000000000000000000000E6
:1052C80000000000000000000000000000000000D6
:1052D80000000000000000000000000000000000C6
:1052E80000000000000000000000000000000000B6
:1052F80000000000000000000000000000000000A6
:105308000000000000000000000000008B0013EB0C
:10531800401313F184431A60704738B504000D0038
:10532800E4B2002C01D13F201CE0E4B2012C02D1F0
:105338004FF4784016E0E4B2022C02D14FF47C60BE
:1053480010E0E4B2032C02D14FF47E400AE0E4B24C
:10535800042C01D1002005E0E4B2052C01D1FF2086
:1053680000E000200100294111F00100002229007D
:105378007648E4B2302303FB04000C30FFF7C6FF85
:1053880031BD38B504000D00E4B2002C01D13F2036
:105398001CE0E4B2012C02D14FF4784016E0E4B2EC
:1053A800022C02D14FF47C6010E0E4B2032C02D14D
:1053B8004FF47E400AE0E4B2042C01D1002005E05D
:1053C800E4B2052C01D1FF2000E0002001002941B2
:1053D80011F00100012229005C48E4B2302303FBEC
:1053E80004000C30FFF792FF31BD10B4C0B20028A2
:1053F80001D13F221CE0C0B2012802D14FF478420B
:1054080016E0C0B2022802D14FF47C6210E0C0B2AC
:10541800032802D14FF47E420AE0C0B2042801D129
:10542800002205E0C0B2052801D1FF2200E00022D9
:1054380013000B4113F0010201228A40434BC0B212
:10544800302404FB00339A6110BC704710B586B055
:10545800002400A83E4991EC060B80EC060B0121C4
:105468003C48FCF780FB3C48029000A93B4800F010
:10547800EFF80A203A4908603A48006830F01F20DF
:1054880050F00B2037490860200006B010BD70B5F9
:1054980004000D000026002D12D0012D02D020009E
:1054A800C00706D521782D4800F05EF96D1E641CF2
:1054B800F1E72188294800F05DF9AD1EA41CEAE750
:1054C800294800688006FBD5300070BD10B500245F
:1054D80000F084F9200010BD38B504000025200034
:1054E80000F074FA280032BD70B504000D001600F3
:1054F80032002900200000F023FB002801D01B48BF
:1055080000E0002070BD10B5002401211848FCF708
:105518002AFB200010BD2DE9F84304000D001600F9
:105528001F005FF00008F6B2002E0BD10420814660
:105538003B004A46D2B229002000C0B200F0B8FBB6
:10554800404600E00B48BDE8F283000000A00040A0
:105558008C64000000320400E0673500000401405C
:1055680074040140780401401004014002001380D3
:10557800002508000100138070B504000D00002606
:1055880029002000C0B2FFF7FCFE300070BD70B5E6
:1055980004000D00002629002000C0B2FFF7BDFE60
:1055A800300070BD70B504000D00002629002000F1
:1055B800C0B2FFF71AFF300070BD000010F1C062E2
:1055C8001160704710F180621160704770B5040077
:1055D8000D00160029002000FFF7F4FF310020001D
:1055E800FFF7ECFF70BD2DE9F04180460E00170073
:1055F800002E03D15648FCF703FB06007800002173
:1056080004000D004FF48070A0FB060122002B005F
:10561800FBF78EFC04000D0034F0FF0435F00005A4
:105628004D48002120402940002903D1002801D1FC
:10563800012000E00020C0B24648002104400D408F
:105648002200444918F11400FFF7C0FFBDE8F081BB
:1056580038B504000D004148844202D040488442D5
:1056680001D1012000E00020C0B2200000F042F883
:10567800A87B002802D04FF4806000E00020216859
:10568800B5F91020104350F0010008432060287D30
:10569800002802D05FF0005000E000202168084395
:1056A8002060A87C002803D0E87C50F08000A0652A
:1056B800287B50F480506060AA6869682000FFF772
:1056C80092FF687B002801D01020E060A87D0007C9
:1056D80010F0E040E97D090511F4E0010843206677
:1056E800687D002803D0206850F480302060287836
:1056F800E06031BD1949884202D01949884201D178
:10570800012100E00021C9B240F6AA61C160002170
:10571800016041F205014160002181600021416181
:105728000021C1640F49816400214167002181671C
:105738000021C1670949884201D100210165002182
:1057480081650749884201D10021C1657047000081
:1057580040410500F8FF7F00070080FF000001407E
:1057680000040140F9FF010002695206FCD5C9B2E4
:105778004163704702695206FCD589B2C16370471C
:10578800012110F01F029140994A40B2430942F8A2
:105798002310704772B69748006810F1010F04D0C3
:1057A80094480068401C9349086092480068704714
:1057B8009048006800280CD08E480068401E8D4A2A
:1057C80010608C4800680100002900D162B608000A
:1057D80000E0002070478848006870472DE9F04FC6
:1057E80085B00025002600275FF000085FF000095B
:1057F80001A88249B1E80C10A0E80C100C390C384B
:105808005FF0000A5FF0000B7D480068C00705D410
:1058180001217C48FCF7A7F9012006007A48FCF72B
:10582800E8FB0400E4B2032C01D00120804677484D
:105838000068400601D40120814603217248FCF724
:1058480061FC7348FCF780F9009072480068C00753
:1058580005D401216E48FCF786F901200700FFF7FF
:1058680099FF6D480068C00714D56B4800688246E8
:105878006A48006883460020674908600020674935
:10588800086040F2FF70664908601D20FFF778FF46
:105898000120050000208DF8060000208DF8070083
:1058A80008208DF8080001A8FDF708FF00F038F877
:1058B800FFF77EFFEDB2002D0AD000995448FCF79F
:1058C8004AF95548C0F800A05448C0F800B002E0B2
:1058D8000020FDF7EAFEFFB2002F03D000214C485C
:1058E800FCF741F95FFA88F8B8F1000F04D02100FD
:1058F800C9B24548FCF706FC5FFA89F9B9F1000F0F
:1059080004D0002200210120FCF75AFDF6B2002E37
:1059180003D000213B48FCF726F905B0BDE8F08F1D
:1059280070B508264FF480503E4908603D4800682D
:1059380040003C490860002812D000F03EF80500FD
:1059480000F03BF88542FBD000F037F805003548F9
:10595800006800F037F800F030F8451B002DE5D05E
:105968003048006840082F4908602E480068040045
:105978003000461E00281FD06408002C1CD029487F
:10598800006820432749086000F017F8050000F078
:1059980014F88542FBD000F010F805002148006893
:1059A80000F010F800F009F8A842E1D01D4800689E
:1059B800A0431C490860DBE770BD80B5FFF70BFF0B
:1059C80002BD00000138FDD8704700000100154BEA
:1059D80000290CD0013988221202003251431A687A
:1059E800C80AD20A5043800901D00138FDD870474F
:1059F80080E200E094090020082004401C650000B3
:105A0800B0400E400005080005001E0090400E4002
:105A180090091000F0400E4000200440242004406B
:105A28002020044030000020704770B504000D00AD
:105A3800160033002A008021200000F0ECF9002035
:105A480070BD10B592B00BA84D4991EC060B80ECD7
:105A5800060B03A84B491CC91CC00C390C3806A8F6
:105A680049491422FBF7ECFA00200290002001902B
:105A7800FFF7DAFF03A8FCF7A7FF06A8FCF720FC4E
:105A880004211120FCF73EFB002200210320FCF733
:105A980097FC00F040F8FDF7B8FAFEF771FB0BA889
:105AA80000F091FA002280210B9800F0EFF9040031
:105AB8003648FDF77EFA002000900FF2B5034FF448
:105AC800FA62012131480068FDF7F2FA2000C0B2FD
